{
  "_format": "hh-sol-artifact-1",
  "contractName": "LeoToken",
  "sourceName": "contracts/LeoToken.sol",
  "abi": [
    {
      "inputs": [
        {
          "internalType": "uint256",
          "name": "cap",
          "type": "uint256"
        }
      ],
      "stateMutability": "nonpayable",
      "type": "constructor"
    },
    {
      "anonymous": false,
      "inputs": [
        {
          "indexed": true,
          "internalType": "address",
          "name": "owner",
          "type": "address"
        },
        {
          "indexed": true,
          "internalType": "address",
          "name": "spender",
          "type": "address"
        },
        {
          "indexed": false,
          "internalType": "uint256",
          "name": "value",
          "type": "uint256"
        }
      ],
      "name": "Approval",
      "type": "event"
    },
    {
      "anonymous": false,
      "inputs": [
        {
          "indexed": true,
          "internalType": "address",
          "name": "from",
          "type": "address"
        },
        {
          "indexed": true,
          "internalType": "address",
          "name": "to",
          "type": "address"
        },
        {
          "indexed": false,
          "internalType": "uint256",
          "name": "value",
          "type": "uint256"
        }
      ],
      "name": "Transfer",
      "type": "event"
    },
    {
      "inputs": [
        {
          "internalType": "address",
          "name": "owner",
          "type": "address"
        },
        {
          "internalType": "address",
          "name": "spender",
          "type": "address"
        }
      ],
      "name": "allowance",
      "outputs": [
        {
          "internalType": "uint256",
          "name": "",
          "type": "uint256"
        }
      ],
      "stateMutability": "view",
      "type": "function"
    },
    {
      "inputs": [
        {
          "internalType": "address",
          "name": "spender",
          "type": "address"
        },
        {
          "internalType": "uint256",
          "name": "amount",
          "type": "uint256"
        }
      ],
      "name": "approve",
      "outputs": [
        {
          "internalType": "bool",
          "name": "",
          "type": "bool"
        }
      ],
      "stateMutability": "nonpayable",
      "type": "function"
    },
    {
      "inputs": [
        {
          "internalType": "address",
          "name": "account",
          "type": "address"
        }
      ],
      "name": "balanceOf",
      "outputs": [
        {
          "internalType": "uint256",
          "name": "",
          "type": "uint256"
        }
      ],
      "stateMutability": "view",
      "type": "function"
    },
    {
      "inputs": [
        {
          "internalType": "uint256",
          "name": "amount",
          "type": "uint256"
        }
      ],
      "name": "burn",
      "outputs": [],
      "stateMutability": "nonpayable",
      "type": "function"
    },
    {
      "inputs": [
        {
          "internalType": "address",
          "name": "account",
          "type": "address"
        },
        {
          "internalType": "uint256",
          "name": "amount",
          "type": "uint256"
        }
      ],
      "name": "burnFrom",
      "outputs": [],
      "stateMutability": "nonpayable",
      "type": "function"
    },
    {
      "inputs": [],
      "name": "cap",
      "outputs": [
        {
          "internalType": "uint256",
          "name": "",
          "type": "uint256"
        }
      ],
      "stateMutability": "view",
      "type": "function"
    },
    {
      "inputs": [],
      "name": "decimals",
      "outputs": [
        {
          "internalType": "uint8",
          "name": "",
          "type": "uint8"
        }
      ],
      "stateMutability": "view",
      "type": "function"
    },
    {
      "inputs": [
        {
          "internalType": "address",
          "name": "spender",
          "type": "address"
        },
        {
          "internalType": "uint256",
          "name": "subtractedValue",
          "type": "uint256"
        }
      ],
      "name": "decreaseAllowance",
      "outputs": [
        {
          "internalType": "bool",
          "name": "",
          "type": "bool"
        }
      ],
      "stateMutability": "nonpayable",
      "type": "function"
    },
    {
      "inputs": [],
      "name": "destroy",
      "outputs": [],
      "stateMutability": "nonpayable",
      "type": "function"
    },
    {
      "inputs": [
        {
          "internalType": "address",
          "name": "spender",
          "type": "address"
        },
        {
          "internalType": "uint256",
          "name": "addedValue",
          "type": "uint256"
        }
      ],
      "name": "increaseAllowance",
      "outputs": [
        {
          "internalType": "bool",
          "name": "",
          "type": "bool"
        }
      ],
      "stateMutability": "nonpayable",
      "type": "function"
    },
    {
      "inputs": [],
      "name": "name",
      "outputs": [
        {
          "internalType": "string",
          "name": "",
          "type": "string"
        }
      ],
      "stateMutability": "view",
      "type": "function"
    },
    {
      "inputs": [],
      "name": "owner",
      "outputs": [
        {
          "internalType": "address payable",
          "name": "",
          "type": "address"
        }
      ],
      "stateMutability": "view",
      "type": "function"
    },
    {
      "inputs": [],
      "name": "symbol",
      "outputs": [
        {
          "internalType": "string",
          "name": "",
          "type": "string"
        }
      ],
      "stateMutability": "view",
      "type": "function"
    },
    {
      "inputs": [],
      "name": "totalSupply",
      "outputs": [
        {
          "internalType": "uint256",
          "name": "",
          "type": "uint256"
        }
      ],
      "stateMutability": "view",
      "type": "function"
    },
    {
      "inputs": [
        {
          "internalType": "address",
          "name": "to",
          "type": "address"
        },
        {
          "internalType": "uint256",
          "name": "amount",
          "type": "uint256"
        }
      ],
      "name": "transfer",
      "outputs": [
        {
          "internalType": "bool",
          "name": "",
          "type": "bool"
        }
      ],
      "stateMutability": "nonpayable",
      "type": "function"
    },
    {
      "inputs": [
        {
          "internalType": "address",
          "name": "from",
          "type": "address"
        },
        {
          "internalType": "address",
          "name": "to",
          "type": "address"
        },
        {
          "internalType": "uint256",
          "name": "amount",
          "type": "uint256"
        }
      ],
      "name": "transferFrom",
      "outputs": [
        {
          "internalType": "bool",
          "name": "",
          "type": "bool"
        }
      ],
      "stateMutability": "nonpayable",
      "type": "function"
    }
  ],
  "bytecode": "0x60a06040523480156200001157600080fd5b5060405162002759380380620027598339818101604052810190620000379190620004e3565b62000047620001ed60201b60201c565b600a620000559190620006a5565b81620000629190620006f6565b6040518060400160405280600881526020017f4c656f546f6b656e0000000000000000000000000000000000000000000000008152506040518060400160405280600381526020017f4c454f00000000000000000000000000000000000000000000000000000000008152508160039081620000df9190620009b1565b508060049081620000f19190620009b1565b505050600081116200013a576040517f08c379a0000000000000000000000000000000000000000000000000000000008152600401620001319062000af9565b60405180910390fd5b80608081815250505033600560006101000a81548173ffffffffffffffffffffffffffffffffffffffff021916908373ffffffffffffffffffffffffffffffffffffffff160217905550620001e6600560009054906101000a900473ffffffffffffffffffffffffffffffffffffffff16620001bb620001ed60201b60201c565b600a620001c99190620006a5565b63042c1d80620001da9190620006f6565b620001f660201b60201c565b5062000c68565b60006012905090565b620002066200028760201b60201c565b816200021c6200029160201b620004001760201c565b62000228919062000b1b565b11156200026c576040517f08c379a0000000000000000000000000000000000000000000000000000000008152600401620002639062000ba6565b60405180910390fd5b6200028382826200029b60201b620007c11760201c565b5050565b6000608051905090565b6000600254905090565b620002ab6200028760201b60201c565b81620002c16200029160201b620004001760201c565b620002cd919062000b1b565b111562000311576040517f08c379a0000000000000000000000000000000000000000000000000000000008152600401620003089062000ba6565b60405180910390fd5b6200032882826200032c60201b6200082b1760201c565b5050565b600073ffffffffffffffffffffffffffffffffffffffff168273ffffffffffffffffffffffffffffffffffffffff16036200039e576040517f08c379a0000000000000000000000000000000000000000000000000000000008152600401620003959062000c18565b60405180910390fd5b620003b2600083836200049960201b60201c565b8060026000828254620003c6919062000b1b565b92505081905550806000808473ffffffffffffffffffffffffffffffffffffffff1673ffffffffffffffffffffffffffffffffffffffff168152602001908152602001600020600082825401925050819055508173ffffffffffffffffffffffffffffffffffffffff16600073ffffffffffffffffffffffffffffffffffffffff167fddf252ad1be2c89b69c2b068fc378daa952ba7f163c4a11628f55a4df523b3ef8360405162000479919062000c4b565b60405180910390a362000495600083836200049e60201b60201c565b5050565b505050565b505050565b600080fd5b6000819050919050565b620004bd81620004a8565b8114620004c957600080fd5b50565b600081519050620004dd81620004b2565b92915050565b600060208284031215620004fc57620004fb620004a3565b5b60006200050c84828501620004cc565b91505092915050565b7f4e487b7100000000000000000000000000000000000000000000000000000000600052601160045260246000fd5b60008160011c9050919050565b6000808291508390505b6001851115620005a3578086048111156200057b576200057a62000515565b5b60018516156200058b5780820291505b80810290506200059b8562000544565b94506200055b565b94509492505050565b600082620005be576001905062000691565b81620005ce576000905062000691565b8160018114620005e75760028114620005f25762000628565b600191505062000691565b60ff84111562000607576200060662000515565b5b8360020a91508482111562000621576200062062000515565b5b5062000691565b5060208310610133831016604e8410600b8410161715620006625782820a9050838111156200065c576200065b62000515565b5b62000691565b62000671848484600162000551565b925090508184048111156200068b576200068a62000515565b5b81810290505b9392505050565b600060ff82169050919050565b6000620006b282620004a8565b9150620006bf8362000698565b9250620006ee7fffffffffffffffffffffffffffffffffffffffffffffffffffffffffffffffff8484620005ac565b905092915050565b60006200070382620004a8565b91506200071083620004a8565b92508282026200072081620004a8565b915082820484148315176200073a576200073962000515565b5b5092915050565b600081519050919050565b7f4e487b7100000000000000000000000000000000000000000000000000000000600052604160045260246000fd5b7f4e487b7100000000000000000000000000000000000000000000000000000000600052602260045260246000fd5b60006002820490506001821680620007c357607f821691505b602082108103620007d957620007d86200077b565b5b50919050565b60008190508160005260206000209050919050565b60006020601f8301049050919050565b600082821b905092915050565b600060088302620008437fffffffffffffffffffffffffffffffffffffffffffffffffffffffffffffffff8262000804565b6200084f868362000804565b95508019841693508086168417925050509392505050565b6000819050919050565b6000620008926200088c6200088684620004a8565b62000867565b620004a8565b9050919050565b6000819050919050565b620008ae8362000871565b620008c6620008bd8262000899565b84845462000811565b825550505050565b600090565b620008dd620008ce565b620008ea818484620008a3565b505050565b5b81811015620009125762000906600082620008d3565b600181019050620008f0565b5050565b601f82111562000961576200092b81620007df565b6200093684620007f4565b8101602085101562000946578190505b6200095e6200095585620007f4565b830182620008ef565b50505b505050565b600082821c905092915050565b6000620009866000198460080262000966565b1980831691505092915050565b6000620009a1838362000973565b9150826002028217905092915050565b620009bc8262000741565b67ffffffffffffffff811115620009d857620009d76200074c565b5b620009e48254620007aa565b620009f182828562000916565b600060209050601f83116001811462000a29576000841562000a14578287015190505b62000a20858262000993565b86555062000a90565b601f19841662000a3986620007df565b60005b8281101562000a635784890151825560018201915060208501945060208101905062000a3c565b8683101562000a83578489015162000a7f601f89168262000973565b8355505b6001600288020188555050505b505050505050565b600082825260208201905092915050565b7f45524332304361707065643a2063617020697320300000000000000000000000600082015250565b600062000ae160158362000a98565b915062000aee8262000aa9565b602082019050919050565b6000602082019050818103600083015262000b148162000ad2565b9050919050565b600062000b2882620004a8565b915062000b3583620004a8565b925082820190508082111562000b505762000b4f62000515565b5b92915050565b7f45524332304361707065643a2063617020657863656564656400000000000000600082015250565b600062000b8e60198362000a98565b915062000b9b8262000b56565b602082019050919050565b6000602082019050818103600083015262000bc18162000b7f565b9050919050565b7f45524332303a206d696e7420746f20746865207a65726f206164647265737300600082015250565b600062000c00601f8362000a98565b915062000c0d8262000bc8565b602082019050919050565b6000602082019050818103600083015262000c338162000bf1565b9050919050565b62000c4581620004a8565b82525050565b600060208201905062000c62600083018462000c3a565b92915050565b608051611ad562000c8460003960006104460152611ad56000f3fe608060405234801561001057600080fd5b50600436106101005760003560e01c806370a082311161009757806395d89b411161006657806395d89b411461029d578063a457c2d7146102bb578063a9059cbb146102eb578063dd62ed3e1461031b57610100565b806370a082311461022957806379cc67901461025957806383197ef0146102755780638da5cb5b1461027f57610100565b8063313ce567116100d3578063313ce567146101a1578063355274ea146101bf57806339509351146101dd57806342966c681461020d57610100565b806306fdde0314610105578063095ea7b31461012357806318160ddd1461015357806323b872dd14610171575b600080fd5b61010d61034b565b60405161011a91906110bb565b60405180910390f35b61013d60048036038101906101389190611176565b6103dd565b60405161014a91906111d1565b60405180910390f35b61015b610400565b60405161016891906111fb565b60405180910390f35b61018b60048036038101906101869190611216565b61040a565b60405161019891906111d1565b60405180910390f35b6101a9610439565b6040516101b69190611285565b60405180910390f35b6101c7610442565b6040516101d491906111fb565b60405180910390f35b6101f760048036038101906101f29190611176565b61046a565b60405161020491906111d1565b60405180910390f35b610227600480360381019061022291906112a0565b6104a1565b005b610243600480360381019061023e91906112cd565b6104b5565b60405161025091906111fb565b60405180910390f35b610273600480360381019061026e9190611176565b6104fd565b005b61027d61051d565b005b6102876105e8565b604051610294919061131b565b60405180910390f35b6102a561060e565b6040516102b291906110bb565b60405180910390f35b6102d560048036038101906102d09190611176565b6106a0565b6040516102e291906111d1565b60405180910390f35b61030560048036038101906103009190611176565b610717565b60405161031291906111d1565b60405180910390f35b61033560048036038101906103309190611336565b61073a565b60405161034291906111fb565b60405180910390f35b60606003805461035a906113a5565b80601f0160208091040260200160405190810160405280929190818152602001828054610386906113a5565b80156103d35780601f106103a8576101008083540402835291602001916103d3565b820191906000526020600020905b8154815290600101906020018083116103b657829003601f168201915b5050505050905090565b6000806103e8610981565b90506103f5818585610989565b600191505092915050565b6000600254905090565b600080610415610981565b9050610422858285610b52565b61042d858585610bde565b60019150509392505050565b60006012905090565b60007f0000000000000000000000000000000000000000000000000000000000000000905090565b600080610475610981565b9050610496818585610487858961073a565b6104919190611405565b610989565b600191505092915050565b6104b26104ac610981565b82610e54565b50565b60008060008373ffffffffffffffffffffffffffffffffffffffff1673ffffffffffffffffffffffffffffffffffffffff168152602001908152602001600020549050919050565b61050f82610509610981565b83610b52565b6105198282610e54565b5050565b600560009054906101000a900473ffffffffffffffffffffffffffffffffffffffff1673ffffffffffffffffffffffffffffffffffffffff163373ffffffffffffffffffffffffffffffffffffffff16146105ad576040517f08c379a00000000000000000000000000000000000000000000000000000000081526004016105a4906114ab565b60405180910390fd5b600560009054906101000a900473ffffffffffffffffffffffffffffffffffffffff1673ffffffffffffffffffffffffffffffffffffffff16ff5b600560009054906101000a900473ffffffffffffffffffffffffffffffffffffffff1681565b60606004805461061d906113a5565b80601f0160208091040260200160405190810160405280929190818152602001828054610649906113a5565b80156106965780601f1061066b57610100808354040283529160200191610696565b820191906000526020600020905b81548152906001019060200180831161067957829003601f168201915b5050505050905090565b6000806106ab610981565b905060006106b9828661073a565b9050838110156106fe576040517f08c379a00000000000000000000000000000000000000000000000000000000081526004016106f59061153d565b60405180910390fd5b61070b8286868403610989565b60019250505092915050565b600080610722610981565b905061072f818585610bde565b600191505092915050565b6000600160008473ffffffffffffffffffffffffffffffffffffffff1673ffffffffffffffffffffffffffffffffffffffff16815260200190815260200160002060008373ffffffffffffffffffffffffffffffffffffffff1673ffffffffffffffffffffffffffffffffffffffff16815260200190815260200160002054905092915050565b6107c9610442565b816107d2610400565b6107dc9190611405565b111561081d576040517f08c379a0000000000000000000000000000000000000000000000000000000008152600401610814906115a9565b60405180910390fd5b610827828261082b565b5050565b600073ffffffffffffffffffffffffffffffffffffffff168273ffffffffffffffffffffffffffffffffffffffff160361089a576040517f08c379a000000000000000000000000000000000000000000000000000000000815260040161089190611615565b60405180910390fd5b6108a660008383611021565b80600260008282546108b89190611405565b92505081905550806000808473ffffffffffffffffffffffffffffffffffffffff1673ffffffffffffffffffffffffffffffffffffffff168152602001908152602001600020600082825401925050819055508173ffffffffffffffffffffffffffffffffffffffff16600073ffffffffffffffffffffffffffffffffffffffff167fddf252ad1be2c89b69c2b068fc378daa952ba7f163c4a11628f55a4df523b3ef8360405161096991906111fb565b60405180910390a361097d60008383611026565b5050565b600033905090565b600073ffffffffffffffffffffffffffffffffffffffff168373ffffffffffffffffffffffffffffffffffffffff16036109f8576040517f08c379a00000000000000000000000000000000000000000000000000000000081526004016109ef906116a7565b60405180910390fd5b600073ffffffffffffffffffffffffffffffffffffffff168273ffffffffffffffffffffffffffffffffffffffff1603610a67576040517f08c379a0000000000000000000000000000000000000000000000000000000008152600401610a5e90611739565b60405180910390fd5b80600160008573ffffffffffffffffffffffffffffffffffffffff1673ffffffffffffffffffffffffffffffffffffffff16815260200190815260200160002060008473ffffffffffffffffffffffffffffffffffffffff1673ffffffffffffffffffffffffffffffffffffffff168152602001908152602001600020819055508173ffffffffffffffffffffffffffffffffffffffff168373ffffffffffffffffffffffffffffffffffffffff167f8c5be1e5ebec7d5bd14f71427d1e84f3dd0314c0f7b2291e5b200ac8c7c3b92583604051610b4591906111fb565b60405180910390a3505050565b6000610b5e848461073a565b90507fffffffffffffffffffffffffffffffffffffffffffffffffffffffffffffffff8114610bd85781811015610bca576040517f08c379a0000000000000000000000000000000000000000000000000000000008152600401610bc1906117a5565b60405180910390fd5b610bd78484848403610989565b5b50505050565b600073ffffffffffffffffffffffffffffffffffffffff168373ffffffffffffffffffffffffffffffffffffffff1603610c4d576040517f08c379a0000000000000000000000000000000000000000000000000000000008152600401610c4490611837565b60405180910390fd5b600073ffffffffffffffffffffffffffffffffffffffff168273ffffffffffffffffffffffffffffffffffffffff1603610cbc576040517f08c379a0000000000000000000000000000000000000000000000000000000008152600401610cb3906118c9565b60405180910390fd5b610cc7838383611021565b60008060008573ffffffffffffffffffffffffffffffffffffffff1673ffffffffffffffffffffffffffffffffffffffff16815260200190815260200160002054905081811015610d4d576040517f08c379a0000000000000000000000000000000000000000000000000000000008152600401610d449061195b565b60405180910390fd5b8181036000808673ffffffffffffffffffffffffffffffffffffffff1673ffffffffffffffffffffffffffffffffffffffff16815260200190815260200160002081905550816000808573ffffffffffffffffffffffffffffffffffffffff1673ffffffffffffffffffffffffffffffffffffffff168152602001908152602001600020600082825401925050819055508273ffffffffffffffffffffffffffffffffffffffff168473ffffffffffffffffffffffffffffffffffffffff167fddf252ad1be2c89b69c2b068fc378daa952ba7f163c4a11628f55a4df523b3ef84604051610e3b91906111fb565b60405180910390a3610e4e848484611026565b50505050565b600073ffffffffffffffffffffffffffffffffffffffff168273ffffffffffffffffffffffffffffffffffffffff1603610ec3576040517f08c379a0000000000000000000000000000000000000000000000000000000008152600401610eba906119ed565b60405180910390fd5b610ecf82600083611021565b60008060008473ffffffffffffffffffffffffffffffffffffffff1673ffffffffffffffffffffffffffffffffffffffff16815260200190815260200160002054905081811015610f55576040517f08c379a0000000000000000000000000000000000000000000000000000000008152600401610f4c90611a7f565b60405180910390fd5b8181036000808573ffffffffffffffffffffffffffffffffffffffff1673ffffffffffffffffffffffffffffffffffffffff1681526020019081526020016000208190555081600260008282540392505081905550600073ffffffffffffffffffffffffffffffffffffffff168373ffffffffffffffffffffffffffffffffffffffff167fddf252ad1be2c89b69c2b068fc378daa952ba7f163c4a11628f55a4df523b3ef8460405161100891906111fb565b60405180910390a361101c83600084611026565b505050565b505050565b505050565b600081519050919050565b600082825260208201905092915050565b60005b8381101561106557808201518184015260208101905061104a565b60008484015250505050565b6000601f19601f8301169050919050565b600061108d8261102b565b6110978185611036565b93506110a7818560208601611047565b6110b081611071565b840191505092915050565b600060208201905081810360008301526110d58184611082565b905092915050565b600080fd5b600073ffffffffffffffffffffffffffffffffffffffff82169050919050565b600061110d826110e2565b9050919050565b61111d81611102565b811461112857600080fd5b50565b60008135905061113a81611114565b92915050565b6000819050919050565b61115381611140565b811461115e57600080fd5b50565b6000813590506111708161114a565b92915050565b6000806040838503121561118d5761118c6110dd565b5b600061119b8582860161112b565b92505060206111ac85828601611161565b9150509250929050565b60008115159050919050565b6111cb816111b6565b82525050565b60006020820190506111e660008301846111c2565b92915050565b6111f581611140565b82525050565b600060208201905061121060008301846111ec565b92915050565b60008060006060848603121561122f5761122e6110dd565b5b600061123d8682870161112b565b935050602061124e8682870161112b565b925050604061125f86828701611161565b9150509250925092565b600060ff82169050919050565b61127f81611269565b82525050565b600060208201905061129a6000830184611276565b92915050565b6000602082840312156112b6576112b56110dd565b5b60006112c484828501611161565b91505092915050565b6000602082840312156112e3576112e26110dd565b5b60006112f18482850161112b565b91505092915050565b6000611305826110e2565b9050919050565b611315816112fa565b82525050565b6000602082019050611330600083018461130c565b92915050565b6000806040838503121561134d5761134c6110dd565b5b600061135b8582860161112b565b925050602061136c8582860161112b565b9150509250929050565b7f4e487b7100000000000000000000000000000000000000000000000000000000600052602260045260246000fd5b600060028204905060018216806113bd57607f821691505b6020821081036113d0576113cf611376565b5b50919050565b7f4e487b7100000000000000000000000000000000000000000000000000000000600052601160045260246000fd5b600061141082611140565b915061141b83611140565b9250828201905080821115611433576114326113d6565b5b92915050565b7f6f6e6c7920746865204f776e65722063616e2063616c6c20746869732066756e60008201527f6374696f6e000000000000000000000000000000000000000000000000000000602082015250565b6000611495602583611036565b91506114a082611439565b604082019050919050565b600060208201905081810360008301526114c481611488565b9050919050565b7f45524332303a2064656372656173656420616c6c6f77616e63652062656c6f7760008201527f207a65726f000000000000000000000000000000000000000000000000000000602082015250565b6000611527602583611036565b9150611532826114cb565b604082019050919050565b600060208201905081810360008301526115568161151a565b9050919050565b7f45524332304361707065643a2063617020657863656564656400000000000000600082015250565b6000611593601983611036565b915061159e8261155d565b602082019050919050565b600060208201905081810360008301526115c281611586565b9050919050565b7f45524332303a206d696e7420746f20746865207a65726f206164647265737300600082015250565b60006115ff601f83611036565b915061160a826115c9565b602082019050919050565b6000602082019050818103600083015261162e816115f2565b9050919050565b7f45524332303a20617070726f76652066726f6d20746865207a65726f2061646460008201527f7265737300000000000000000000000000000000000000000000000000000000602082015250565b6000611691602483611036565b915061169c82611635565b604082019050919050565b600060208201905081810360008301526116c081611684565b9050919050565b7f45524332303a20617070726f766520746f20746865207a65726f20616464726560008201527f7373000000000000000000000000000000000000000000000000000000000000602082015250565b6000611723602283611036565b915061172e826116c7565b604082019050919050565b6000602082019050818103600083015261175281611716565b9050919050565b7f45524332303a20696e73756666696369656e7420616c6c6f77616e6365000000600082015250565b600061178f601d83611036565b915061179a82611759565b602082019050919050565b600060208201905081810360008301526117be81611782565b9050919050565b7f45524332303a207472616e736665722066726f6d20746865207a65726f20616460008201527f6472657373000000000000000000000000000000000000000000000000000000602082015250565b6000611821602583611036565b915061182c826117c5565b604082019050919050565b6000602082019050818103600083015261185081611814565b9050919050565b7f45524332303a207472616e7366657220746f20746865207a65726f206164647260008201527f6573730000000000000000000000000000000000000000000000000000000000602082015250565b60006118b3602383611036565b91506118be82611857565b604082019050919050565b600060208201905081810360008301526118e2816118a6565b9050919050565b7f45524332303a207472616e7366657220616d6f756e742065786365656473206260008201527f616c616e63650000000000000000000000000000000000000000000000000000602082015250565b6000611945602683611036565b9150611950826118e9565b604082019050919050565b6000602082019050818103600083015261197481611938565b9050919050565b7f45524332303a206275726e2066726f6d20746865207a65726f2061646472657360008201527f7300000000000000000000000000000000000000000000000000000000000000602082015250565b60006119d7602183611036565b91506119e28261197b565b604082019050919050565b60006020820190508181036000830152611a06816119ca565b9050919050565b7f45524332303a206275726e20616d6f756e7420657863656564732062616c616e60008201527f6365000000000000000000000000000000000000000000000000000000000000602082015250565b6000611a69602283611036565b9150611a7482611a0d565b604082019050919050565b60006020820190508181036000830152611a9881611a5c565b905091905056fea26469706673582212206bd778c6ef680ca2aa0e83911da1b4b9e8c245effcc53e463d754e3f6213dfc464736f6c63430008110033",
  "linkReferences": {},
  "deployedLinkReferences": {}
}